:100000000C9434000C943E000C943E000C943E0082
:100010000C943E000C943E000C943E000C943E0068
:100020000C943E000C943E000C943E000C943E0058
:100030000C943E000C943E000C943E000C943E0048
:100040000C943E000C943E000C943E000C943E0038
:100050000C943E000C943E000C943E000C943E0028
:100060000C943E000C943E0011241FBECFEFD8E04C
:10007000DEBFCDBF0E9453000C9462000C940000C0
:1000800007C0EFEFFEE03197F1F700C000000197E5
:100090000097B9F708958FE384B915B808958F7361
:1000A000992785B908950E944B00D7E0C8E3D5B9D8
:1000B00084E690E00E944000C5B984E690E00E948A
:0800C0004000F5CFF894FFCFDA
:00000001FF
